{
  "contractName": "GPTWarsLootboxNFT",
  "abi": [
    {
      "inputs": [
        {
          "internalType": "address",
          "name": "_gptWarsToken",
          "type": "address"
        }
      ],
      "stateMutability": "nonpayable",
      "type": "constructor"
    },
    {
      "anonymous": false,
      "inputs": [
        {
          "indexed": true,
          "internalType": "address",
          "name": "owner",
          "type": "address"
        },
        {
          "indexed": true,
          "internalType": "address",
          "name": "approved",
          "type": "address"
        },
        {
          "indexed": true,
          "internalType": "uint256",
          "name": "tokenId",
          "type": "uint256"
        }
      ],
      "name": "Approval",
      "type": "event"
    },
    {
      "anonymous": false,
      "inputs": [
        {
          "indexed": true,
          "internalType": "address",
          "name": "owner",
          "type": "address"
        },
        {
          "indexed": true,
          "internalType": "address",
          "name": "operator",
          "type": "address"
        },
        {
          "indexed": false,
          "internalType": "bool",
          "name": "approved",
          "type": "bool"
        }
      ],
      "name": "ApprovalForAll",
      "type": "event"
    },
    {
      "anonymous": false,
      "inputs": [
        {
          "indexed": false,
          "internalType": "uint256",
          "name": "_fromTokenId",
          "type": "uint256"
        },
        {
          "indexed": false,
          "internalType": "uint256",
          "name": "_toTokenId",
          "type": "uint256"
        }
      ],
      "name": "BatchMetadataUpdate",
      "type": "event"
    },
    {
      "anonymous": false,
      "inputs": [
        {
          "indexed": true,
          "internalType": "address",
          "name": "user",
          "type": "address"
        },
        {
          "indexed": false,
          "internalType": "uint256",
          "name": "tokenId",
          "type": "uint256"
        },
        {
          "indexed": false,
          "internalType": "string",
          "name": "cosmeticName",
          "type": "string"
        },
        {
          "indexed": false,
          "internalType": "string",
          "name": "metadataURI",
          "type": "string"
        }
      ],
      "name": "CosmeticMinted",
      "type": "event"
    },
    {
      "anonymous": false,
      "inputs": [
        {
          "indexed": true,
          "internalType": "address",
          "name": "user",
          "type": "address"
        },
        {
          "indexed": false,
          "internalType": "uint256",
          "name": "quantity",
          "type": "uint256"
        },
        {
          "indexed": false,
          "internalType": "uint256",
          "name": "packType",
          "type": "uint256"
        }
      ],
      "name": "LootboxBought",
      "type": "event"
    },
    {
      "anonymous": false,
      "inputs": [
        {
          "indexed": false,
          "internalType": "string",
          "name": "name",
          "type": "string"
        },
        {
          "indexed": false,
          "internalType": "uint256",
          "name": "lootboxLevel",
          "type": "uint256"
        },
        {
          "indexed": false,
          "internalType": "uint256",
          "name": "price",
          "type": "uint256"
        },
        {
          "indexed": false,
          "internalType": "string",
          "name": "metadataURI",
          "type": "string"
        }
      ],
      "name": "LootboxCreated",
      "type": "event"
    },
    {
      "anonymous": false,
      "inputs": [
        {
          "indexed": false,
          "internalType": "uint256",
          "name": "_tokenId",
          "type": "uint256"
        }
      ],
      "name": "MetadataUpdate",
      "type": "event"
    },
    {
      "anonymous": false,
      "inputs": [
        {
          "indexed": true,
          "internalType": "address",
          "name": "user",
          "type": "address"
        },
        {
          "indexed": false,
          "internalType": "uint256",
          "name": "tokenId",
          "type": "uint256"
        },
        {
          "indexed": false,
          "internalType": "string",
          "name": "metadataURI",
          "type": "string"
        }
      ],
      "name": "NFTCreated",
      "type": "event"
    },
    {
      "anonymous": false,
      "inputs": [
        {
          "indexed": false,
          "internalType": "uint256",
          "name": "newTokenId",
          "type": "uint256"
        },
        {
          "indexed": false,
          "internalType": "uint256",
          "name": "oldTokenId1",
          "type": "uint256"
        },
        {
          "indexed": false,
          "internalType": "uint256",
          "name": "oldTokenId2",
          "type": "uint256"
        },
        {
          "indexed": false,
          "internalType": "uint256",
          "name": "oldTokenId3",
          "type": "uint256"
        }
      ],
      "name": "NFTEvolved",
      "type": "event"
    },
    {
      "anonymous": false,
      "inputs": [
        {
          "indexed": true,
          "internalType": "address",
          "name": "previousOwner",
          "type": "address"
        },
        {
          "indexed": true,
          "internalType": "address",
          "name": "newOwner",
          "type": "address"
        }
      ],
      "name": "OwnershipTransferred",
      "type": "event"
    },
    {
      "anonymous": false,
      "inputs": [
        {
          "indexed": true,
          "internalType": "address",
          "name": "from",
          "type": "address"
        },
        {
          "indexed": true,
          "internalType": "address",
          "name": "to",
          "type": "address"
        },
        {
          "indexed": true,
          "internalType": "uint256",
          "name": "tokenId",
          "type": "uint256"
        }
      ],
      "name": "Transfer",
      "type": "event"
    },
    {
      "inputs": [
        {
          "internalType": "address",
          "name": "to",
          "type": "address"
        },
        {
          "internalType": "uint256",
          "name": "tokenId",
          "type": "uint256"
        }
      ],
      "name": "approve",
      "outputs": [],
      "stateMutability": "nonpayable",
      "type": "function"
    },
    {
      "inputs": [
        {
          "internalType": "address",
          "name": "owner",
          "type": "address"
        }
      ],
      "name": "balanceOf",
      "outputs": [
        {
          "internalType": "uint256",
          "name": "",
          "type": "uint256"
        }
      ],
      "stateMutability": "view",
      "type": "function",
      "constant": true
    },
    {
      "inputs": [
        {
          "internalType": "uint256",
          "name": "",
          "type": "uint256"
        },
        {
          "internalType": "uint256",
          "name": "",
          "type": "uint256"
        }
      ],
      "name": "cosmeticSets",
      "outputs": [
        {
          "internalType": "string",
          "name": "name",
          "type": "string"
        },
        {
          "internalType": "string",
          "name": "itemType",
          "type": "string"
        },
        {
          "internalType": "uint256",
          "name": "rarity",
          "type": "uint256"
        },
        {
          "internalType": "string",
          "name": "metadataURI",
          "type": "string"
        }
      ],
      "stateMutability": "view",
      "type": "function",
      "constant": true
    },
    {
      "inputs": [],
      "name": "gameContract",
      "outputs": [
        {
          "internalType": "address",
          "name": "",
          "type": "address"
        }
      ],
      "stateMutability": "view",
      "type": "function",
      "constant": true
    },
    {
      "inputs": [
        {
          "internalType": "uint256",
          "name": "tokenId",
          "type": "uint256"
        }
      ],
      "name": "getApproved",
      "outputs": [
        {
          "internalType": "address",
          "name": "",
          "type": "address"
        }
      ],
      "stateMutability": "view",
      "type": "function",
      "constant": true
    },
    {
      "inputs": [],
      "name": "gptWarsToken",
      "outputs": [
        {
          "internalType": "contract IERC20",
          "name": "",
          "type": "address"
        }
      ],
      "stateMutability": "view",
      "type": "function",
      "constant": true
    },
    {
      "inputs": [
        {
          "internalType": "address",
          "name": "owner",
          "type": "address"
        },
        {
          "internalType": "address",
          "name": "operator",
          "type": "address"
        }
      ],
      "name": "isApprovedForAll",
      "outputs": [
        {
          "internalType": "bool",
          "name": "",
          "type": "bool"
        }
      ],
      "stateMutability": "view",
      "type": "function",
      "constant": true
    },
    {
      "inputs": [
        {
          "internalType": "uint256",
          "name": "",
          "type": "uint256"
        }
      ],
      "name": "lootBoxLevel",
      "outputs": [
        {
          "internalType": "uint256",
          "name": "",
          "type": "uint256"
        }
      ],
      "stateMutability": "view",
      "type": "function",
      "constant": true
    },
    {
      "inputs": [
        {
          "internalType": "address",
          "name": "",
          "type": "address"
        }
      ],
      "name": "lootboxBalance",
      "outputs": [
        {
          "internalType": "uint256",
          "name": "",
          "type": "uint256"
        }
      ],
      "stateMutability": "view",
      "type": "function",
      "constant": true
    },
    {
      "inputs": [
        {
          "internalType": "uint256",
          "name": "",
          "type": "uint256"
        }
      ],
      "name": "lootboxTypes",
      "outputs": [
        {
          "internalType": "string",
          "name": "name",
          "type": "string"
        },
        {
          "internalType": "uint256",
          "name": "lootboxLevel",
          "type": "uint256"
        },
        {
          "internalType": "uint256",
          "name": "price",
          "type": "uint256"
        },
        {
          "internalType": "string",
          "name": "metadataURI",
          "type": "string"
        }
      ],
      "stateMutability": "view",
      "type": "function",
      "constant": true
    },
    {
      "inputs": [],
      "name": "name",
      "outputs": [
        {
          "internalType": "string",
          "name": "",
          "type": "string"
        }
      ],
      "stateMutability": "view",
      "type": "function",
      "constant": true
    },
    {
      "inputs": [],
      "name": "nextTokenId",
      "outputs": [
        {
          "internalType": "uint256",
          "name": "",
          "type": "uint256"
        }
      ],
      "stateMutability": "view",
      "type": "function",
      "constant": true
    },
    {
      "inputs": [],
      "name": "owner",
      "outputs": [
        {
          "internalType": "address",
          "name": "",
          "type": "address"
        }
      ],
      "stateMutability": "view",
      "type": "function",
      "constant": true
    },
    {
      "inputs": [
        {
          "internalType": "uint256",
          "name": "tokenId",
          "type": "uint256"
        }
      ],
      "name": "ownerOf",
      "outputs": [
        {
          "internalType": "address",
          "name": "",
          "type": "address"
        }
      ],
      "stateMutability": "view",
      "type": "function",
      "constant": true
    },
    {
      "inputs": [],
      "name": "renounceOwnership",
      "outputs": [],
      "stateMutability": "nonpayable",
      "type": "function"
    },
    {
      "inputs": [
        {
          "internalType": "address",
          "name": "from",
          "type": "address"
        },
        {
          "internalType": "address",
          "name": "to",
          "type": "address"
        },
        {
          "internalType": "uint256",
          "name": "tokenId",
          "type": "uint256"
        }
      ],
      "name": "safeTransferFrom",
      "outputs": [],
      "stateMutability": "nonpayable",
      "type": "function"
    },
    {
      "inputs": [
        {
          "internalType": "address",
          "name": "from",
          "type": "address"
        },
        {
          "internalType": "address",
          "name": "to",
          "type": "address"
        },
        {
          "internalType": "uint256",
          "name": "tokenId",
          "type": "uint256"
        },
        {
          "internalType": "bytes",
          "name": "data",
          "type": "bytes"
        }
      ],
      "name": "safeTransferFrom",
      "outputs": [],
      "stateMutability": "nonpayable",
      "type": "function"
    },
    {
      "inputs": [
        {
          "internalType": "address",
          "name": "operator",
          "type": "address"
        },
        {
          "internalType": "bool",
          "name": "approved",
          "type": "bool"
        }
      ],
      "name": "setApprovalForAll",
      "outputs": [],
      "stateMutability": "nonpayable",
      "type": "function"
    },
    {
      "inputs": [
        {
          "internalType": "bytes4",
          "name": "interfaceId",
          "type": "bytes4"
        }
      ],
      "name": "supportsInterface",
      "outputs": [
        {
          "internalType": "bool",
          "name": "",
          "type": "bool"
        }
      ],
      "stateMutability": "view",
      "type": "function",
      "constant": true
    },
    {
      "inputs": [],
      "name": "symbol",
      "outputs": [
        {
          "internalType": "string",
          "name": "",
          "type": "string"
        }
      ],
      "stateMutability": "view",
      "type": "function",
      "constant": true
    },
    {
      "inputs": [
        {
          "internalType": "uint256",
          "name": "",
          "type": "uint256"
        }
      ],
      "name": "tokenIdToCosmetic",
      "outputs": [
        {
          "internalType": "string",
          "name": "name",
          "type": "string"
        },
        {
          "internalType": "string",
          "name": "itemType",
          "type": "string"
        },
        {
          "internalType": "uint256",
          "name": "rarity",
          "type": "uint256"
        },
        {
          "internalType": "string",
          "name": "metadataURI",
          "type": "string"
        }
      ],
      "stateMutability": "view",
      "type": "function",
      "constant": true
    },
    {
      "inputs": [
        {
          "internalType": "uint256",
          "name": "tokenId",
          "type": "uint256"
        }
      ],
      "name": "tokenURI",
      "outputs": [
        {
          "internalType": "string",
          "name": "",
          "type": "string"
        }
      ],
      "stateMutability": "view",
      "type": "function",
      "constant": true
    },
    {
      "inputs": [
        {
          "internalType": "address",
          "name": "from",
          "type": "address"
        },
        {
          "internalType": "address",
          "name": "to",
          "type": "address"
        },
        {
          "internalType": "uint256",
          "name": "tokenId",
          "type": "uint256"
        }
      ],
      "name": "transferFrom",
      "outputs": [],
      "stateMutability": "nonpayable",
      "type": "function"
    },
    {
      "inputs": [
        {
          "internalType": "address",
          "name": "newOwner",
          "type": "address"
        }
      ],
      "name": "transferOwnership",
      "outputs": [],
      "stateMutability": "nonpayable",
      "type": "function"
    },
    {
      "inputs": [
        {
          "internalType": "address",
          "name": "",
          "type": "address"
        },
        {
          "internalType": "uint256",
          "name": "",
          "type": "uint256"
        }
      ],
      "name": "userNFTs",
      "outputs": [
        {
          "internalType": "uint256",
          "name": "",
          "type": "uint256"
        }
      ],
      "stateMutability": "view",
      "type": "function",
      "constant": true
    },
    {
      "inputs": [
        {
          "internalType": "address",
          "name": "recipient",
          "type": "address"
        },
        {
          "internalType": "string",
          "name": "metadataURI",
          "type": "string"
        }
      ],
      "name": "createNFT",
      "outputs": [],
      "stateMutability": "nonpayable",
      "type": "function"
    },
    {
      "inputs": [
        {
          "internalType": "uint256",
          "name": "quantity",
          "type": "uint256"
        },
        {
          "internalType": "uint256",
          "name": "lootboxlevel",
          "type": "uint256"
        }
      ],
      "name": "buyLootboxes",
      "outputs": [],
      "stateMutability": "nonpayable",
      "type": "function"
    },
    {
      "inputs": [
        {
          "internalType": "uint256",
          "name": "lootboxlevel",
          "type": "uint256"
        }
      ],
      "name": "openLootbox",
      "outputs": [],
      "stateMutability": "nonpayable",
      "type": "function"
    },
    {
      "inputs": [
        {
          "internalType": "string",
          "name": "name",
          "type": "string"
        }
      ],
      "name": "openOneLootbox",
      "outputs": [],
      "stateMutability": "nonpayable",
      "type": "function"
    },
    {
      "inputs": [
        {
          "internalType": "uint256",
          "name": "tokenId",
          "type": "uint256"
        }
      ],
      "name": "getCosmeticByTokenId",
      "outputs": [
        {
          "components": [
            {
              "internalType": "string",
              "name": "name",
              "type": "string"
            },
            {
              "internalType": "string",
              "name": "itemType",
              "type": "string"
            },
            {
              "internalType": "uint256",
              "name": "rarity",
              "type": "uint256"
            },
            {
              "internalType": "string",
              "name": "metadataURI",
              "type": "string"
            }
          ],
          "internalType": "struct GPTWarsLootboxNFT.Cosmetic",
          "name": "",
          "type": "tuple"
        }
      ],
      "stateMutability": "view",
      "type": "function",
      "constant": true
    },
    {
      "inputs": [],
      "name": "getAllLootboxes",
      "outputs": [
        {
          "components": [
            {
              "internalType": "string",
              "name": "name",
              "type": "string"
            },
            {
              "internalType": "uint256",
              "name": "lootboxLevel",
              "type": "uint256"
            },
            {
              "internalType": "uint256",
              "name": "price",
              "type": "uint256"
            },
            {
              "internalType": "string",
              "name": "metadataURI",
              "type": "string"
            }
          ],
          "internalType": "struct GPTWarsLootboxNFT.Lootbox[]",
          "name": "",
          "type": "tuple[]"
        }
      ],
      "stateMutability": "view",
      "type": "function",
      "constant": true
    },
    {
      "inputs": [
        {
          "internalType": "address",
          "name": "user",
          "type": "address"
        }
      ],
      "name": "getLootboxNFTs",
      "outputs": [
        {
          "components": [
            {
              "internalType": "string",
              "name": "name",
              "type": "string"
            },
            {
              "internalType": "string",
              "name": "itemType",
              "type": "string"
            },
            {
              "internalType": "uint256",
              "name": "rarity",
              "type": "uint256"
            },
            {
              "internalType": "string",
              "name": "metadataURI",
              "type": "string"
            }
          ],
          "internalType": "struct GPTWarsLootboxNFT.Cosmetic[]",
          "name": "",
          "type": "tuple[]"
        }
      ],
      "stateMutability": "view",
      "type": "function",
      "constant": true
    },
    {
      "inputs": [
        {
          "internalType": "string",
          "name": "name",
          "type": "string"
        },
        {
          "internalType": "uint256",
          "name": "lootboxLevel",
          "type": "uint256"
        },
        {
          "internalType": "uint256",
          "name": "price",
          "type": "uint256"
        },
        {
          "internalType": "string",
          "name": "metadataURI",
          "type": "string"
        }
      ],
      "name": "createLootbox",
      "outputs": [],
      "stateMutability": "nonpayable",
      "type": "function"
    },
    {
      "inputs": [
        {
          "internalType": "uint256",
          "name": "tokenId1",
          "type": "uint256"
        },
        {
          "internalType": "uint256",
          "name": "tokenId2",
          "type": "uint256"
        },
        {
          "internalType": "uint256",
          "name": "tokenId3",
          "type": "uint256"
        }
      ],
      "name": "evolveNFT",
      "outputs": [],
      "stateMutability": "nonpayable",
      "type": "function"
    },
    {
      "inputs": [],
      "name": "withdraw",
      "outputs": [],
      "stateMutability": "nonpayable",
      "type": "function"
    },
    {
      "inputs": [
        {
          "internalType": "address",
          "name": "_gameContract",
          "type": "address"
        }
      ],
      "name": "setGameContract",
      "outputs": [],
      "stateMutability": "nonpayable",
      "type": "function"
    },
    {
      "inputs": [
        {
          "internalType": "uint256",
          "name": "tokenId",
          "type": "uint256"
        }
      ],
      "name": "approveGameContract",
      "outputs": [],
      "stateMutability": "nonpayable",
      "type": "function"
    }
  ],
  "bytecode": "0x600160088190556101406040526000608090815260a091909152600260c052600360e0526004610100526005610120526200003f90600b90600662000bcc565b503480156200004d57600080fd5b5060405162004c2b38038062004c2b833981016040819052620000709162000ca8565b604080518082018252600f81526e08ea0a8aec2e4e64098dedee8c4def608b1b60208083019182528351808501909452600784526611d4151313919560ca1b908401528151919291620000c69160009162000c14565b508051620000dc90600190602084019062000c14565b505050620000f9620000f36200012f60201b60201c565b62000133565b600980546001600160a01b0319166001600160a01b0383161790556200011e62000185565b6200012862000674565b5062000d16565b3390565b600780546001600160a01b038381166001600160a01b0319831681179093556040519116919082907f8be0079c531659141344cd1fd0a4f28419497f9722a3daafe3b4186f6b6457e090600090a35050565b604051806080016040528060405180604001604052806008815260200167094eadcd64084def60c31b815250815260200160008152602001611388815260200160405180606001604052806035815260200162004bf66035913990526000805260136020908152815180517f8fa6efc3be94b5b348b21fea823fe8d100408cee9b7f90524494500445d8ff6c926200022292849291019062000c14565b506020828101516001830155604083015160028301556060830151805162000251926003850192019062000c14565b50905050604051806080016040528060405180604001604052806009815260200168086d0cac2e04084def60bb1b815250815260200160018152602001613a98815260200160405180606001604052806035815260200162004b8c603591399052600160005260136020908152815180517f4155c2f711f2cdd34f8262ab8fb9b7020a700fe7b6948222152f7670d1fdf34d92620002f492849291019062000c14565b506020828101516001830155604083015160028301556060830151805162000323926003850192019062000c14565b5090505060405180608001604052806040518060400160405280600881526020016708ededec84084def60c31b815250815260200160028152602001617530815260200160405180606001604052806035815260200162004ab8603591399052600260005260136020908152815180517f0b9d2c0c271bb30544eb78c59bdaebdae2728e5f65814c07768a0abe90ed192392620003c592849291019062000c14565b5060208281015160018301556040830151600283015560608301518051620003f4926003850192019062000c14565b5090505060405180608001604052806040518060400160405280600981526020016808ee4cac2e84084def60bb1b81525081526020016003815260200161c350815260200160405180606001604052806035815260200162004bc1603591399052600360005260136020908152815180517f0d2a6872ef858a7f8ead18dc4f3f2e8d35c853d47e2816cbb9cdd49202554e0c926200049792849291019062000c14565b5060208281015160018301556040830151600283015560608301518051620004c6926003850192019062000c14565b5090505060405180608001604052806040518060400160405280600881526020016708ae0d2c64084def60c31b815250815260200160048152602001620138808152602001604051806060016040528060358152602001620049e4603591399052600460005260136020908152815180517f01413ff7a3b1d5b6c016c061d48e2c7014700c777a29fcd068fff04265813d5d926200056992849291019062000c14565b506020828101516001830155604083015160028301556060830151805162000598926003850192019062000c14565b5090505060405180608001604052806040518060400160405280600d81526020016c098cacecadcc8c2e4f24084def609b1b815250815260200160058152602001620249f0815260200160405180606001604052806035815260200162004a4e603591399052600560005260136020908152815180517ff4b2859895858d6aa26d656e4999d552f6a869b74c43bba7d2a941c4d22c3559926200064092849291019062000c14565b50602082810151600183015560408301516002830155606083015180516200066f926003850192019062000c14565b505050565b6000808052601160209081526040805160c081018252600d608082019081526c20b9b9b0bab63a102b34b9b7b960991b60a0830152815281518083018352600381526212185d60ea1b8185015281840152808201939093528051606081810190925260358082527f4ad3b33220dddc71b994a52d72c06b10862965f7d926534c05c00fb7e819e7b794939284019262004a83908301399052815460018101835560009283526020928390208251805193946004909302909101926200073d928492019062000c14565b50602082810151805162000758926001850192019062000c14565b5060408201516002820155606082015180516200078091600384019160209091019062000c14565b505060016000819052601160209081526040805160c081018252600d608082019081526c436f6d626174204665646f726160981b60a0830152815281518083018352600381526212185d60ea1b8185015281840152808201939093528051606081810190925260358082527f17bc176d2408558f6e4111feebc3cab4e16b63e967be91cde721f4c8a488b55295509184019290919062004aed9083013990528154600181018355600092835260209283902082518051939460049093029091019262000850928492019062000c14565b5060208281015180516200086b926001850192019062000c14565b5060408201516002820155606082015180516200089391600384019160209091019062000c14565b505060026000819052601160209081526040805160c0810182526009608082019081526804475737479204361760bc1b60a0830152815281518083018352600381526212185d60ea1b8185015281840152808201939093528051606081810190925260358082527f08037d7b151cc412d25674a4e66b334d9ae9d2e5517a7feaae5cdb828bf1c62895509184019290919062004b57908301399052815460018101835560009283526020928390208251805193946004909302909101926200095f928492019062000c14565b5060208281015180516200097a926001850192019062000c14565b506040820151600282015560608201518051620009a291600384019160209091019062000c14565b505060036000819052601160209081526040805160c081018252601260808201908152710456c697465204d61726b736d616e204361760741b60a08301528152815180830183528481526212185d60ea1b8185015281840152808201939093528051606081810190925260358082527f9bfbaa59f8e10e7868f8b402de9d605a390c45ddaebd8c9de3c6f31e733c87ff95509184019290919062004b229083013990528154600181018355600092835260209283902082518051939460049093029091019262000a76928492019062000c14565b50602082810151805162000a91926001850192019062000c14565b50604082015160028201556060820151805162000ab991600384019160209091019062000c14565b505060056000819052601160209081526040805160c081018252600d608082019081526c43616d6f20536e61706261636b60981b60a0830152815281518083018352600381526212185d60ea1b8185015281840152808201939093528051606081810190925260358082527fc550213cee30afd5e67ccba7be3d381bbc169034ae08eb3ec9168caca9fe55e795509184019290919062004a199083013990528154600181018355600092835260209283902082518051939460049093029091019262000b89928492019062000c14565b50602082810151805162000ba4926001850192019062000c14565b5060408201516002820155606082015180516200066f91600384019160209091019062000c14565b826006810192821562000c02579160200282015b8281111562000c02578251829060ff1690559160200191906001019062000be0565b5062000c1092915062000c91565b5090565b82805462000c229062000cda565b90600052602060002090601f01602090048101928262000c46576000855562000c02565b82601f1062000c6157805160ff191683800117855562000c02565b8280016001018555821562000c02579182015b8281111562000c0257825182559160200191906001019062000c74565b5b8082111562000c10576000815560010162000c92565b60006020828403121562000cbb57600080fd5b81516001600160a01b038116811462000cd357600080fd5b9392505050565b600181811c9082168062000cef57607f821691505b60208210810362000d1057634e487b7160e01b600052602260045260246000fd5b50919050565b613cbe8062000d266000396000f3fe608060405234801561001057600080fd5b50600436106102275760003560e01c80636352211e11610130578063a22cb465116100b8578063d3f330091161007c578063d3f33009146104e7578063e1cca213146104fa578063e985e9c51461050d578063edc21f8d14610549578063f2fde38b1461055c57600080fd5b8063a22cb46514610488578063a56140331461049b578063b88d4fde146104ae578063c87b56dd146104c1578063cb205f4b146104d457600080fd5b806375794a3c116100ff57806375794a3c146104405780637ff48190146104495780638da5cb5b1461045c5780638e298a531461046d57806395d89b411461048057600080fd5b80636352211e146103ff5780636d5f38f81461041257806370a0823114610425578063715018a61461043857600080fd5b80633ccfd60b116101b357806342ba67fd1161018257806342ba67fd146103695780634474165e14610389578063465361e81461039c5780634bff21bd146103bf57806355608fc8146103df57600080fd5b80633ccfd60b146103185780633e6187fa14610320578063405ebd4d1461034357806342842e0e1461035657600080fd5b8063095ea7b3116101fa578063095ea7b3146102b55780631ce9f8fa146102ca5780632215beb8146102df57806323b872dd146102f2578063291c73c31461030557600080fd5b806301ffc9a71461022c57806306fdde03146102545780630700b6f214610269578063081812fc1461028a575b600080fd5b61023f61023a3660046132cc565b61056f565b60405190151581526020015b60405180910390f35b61025c61059a565b60405161024b9190613341565b61027c610277366004613354565b61062c565b60405190815260200161024b565b61029d610298366004613354565b610643565b6040516001600160a01b03909116815260200161024b565b6102c86102c3366004613389565b61066a565b005b6102d2610784565b60405161024b91906133b3565b6102c86102ed3660046134fb565b610972565b6102c8610300366004613530565b610b60565b61027c610313366004613389565b610b91565b6102c8610bc2565b61033361032e36600461356c565b610d0f565b60405161024b949392919061358e565b6102c86103513660046135d8565b610ef4565b6102c8610364366004613530565b610f1e565b61037c6103773660046135d8565b610f39565b60405161024b919061364e565b610333610397366004613354565b611255565b6103af6103aa366004613354565b611270565b60405161024b94939291906136b0565b61027c6103cd3660046135d8565b60146020526000908152604090205481565b6103f26103ed366004613354565b611325565b60405161024b91906136e1565b61029d61040d366004613354565b61158a565b6102c8610420366004613354565b6115ea565b61027c6104333660046135d8565b611650565b6102c86116d6565b61027c60085481565b6102c8610457366004613354565b6116ea565b6007546001600160a01b031661029d565b6102c861047b3660046136f4565b611882565b61025c611b4f565b6102c861049636600461372e565b611b5e565b6102c86104a9366004613765565b611b6d565b6102c86104bc3660046137b3565b611cd7565b61025c6104cf366004613354565b611d0f565b60095461029d906001600160a01b031681565b600a5461029d906001600160a01b031681565b6102c861050836600461356c565b611e1f565b61023f61051b36600461382f565b6001600160a01b03918216600090815260056020908152604080832093909416825291909152205460ff1690565b6102c8610557366004613862565b611f67565b6102c861056a3660046135d8565b612027565b60006001600160e01b03198216632483248360e11b148061059457506105948261209d565b92915050565b6060600080546105a9906138cd565b80601f01602080910402602001604051908101604052809291908181526020018280546105d5906138cd565b80156106225780601f106105f757610100808354040283529160200191610622565b820191906000526020600020905b81548152906001019060200180831161060557829003601f168201915b5050505050905090565b600b816006811061063c57600080fd5b0154905081565b600061064e826120ed565b506000908152600460205260409020546001600160a01b031690565b60006106758261158a565b9050806001600160a01b0316836001600160a01b0316036106e75760405162461bcd60e51b815260206004820152602160248201527f4552433732313a20617070726f76616c20746f2063757272656e74206f776e656044820152603960f91b60648201526084015b60405180910390fd5b336001600160a01b03821614806107035750610703813361051b565b6107755760405162461bcd60e51b815260206004820152603d60248201527f4552433732313a20617070726f76652063616c6c6572206973206e6f7420746f60448201527f6b656e206f776e6572206f7220617070726f76656420666f7220616c6c00000060648201526084016106de565b61077f838361214c565b505050565b60408051600680825260e0820190925260609160009190816020015b6107cb6040518060800160405280606081526020016000815260200160008152602001606081525090565b8152602001906001900390816107a057905050905060005b600681101561096c5760008181526013602052604090819020815160808101909252805482908290610814906138cd565b80601f0160208091040260200160405190810160405280929190818152602001828054610840906138cd565b801561088d5780601f106108625761010080835404028352916020019161088d565b820191906000526020600020905b81548152906001019060200180831161087057829003601f168201915b5050505050815260200160018201548152602001600282015481526020016003820180546108ba906138cd565b80601f01602080910402602001604051908101604052809291908181526020018280546108e6906138cd565b80156109335780601f1061090857610100808354040283529160200191610933565b820191906000526020600020905b81548152906001019060200180831161091657829003601f168201915b50505050508152505082828151811061094e5761094e613901565b602002602001018190525080806109649061392d565b9150506107e3565b50919050565b336000908152601460205260409020546109c55760405162461bcd60e51b81526020600482015260146024820152734e6f206c6f6f74626f7820617661696c61626c6560601b60448201526064016106de565b60006109d0826121ba565b90506005811115610a1a5760405162461bcd60e51b8152602060048201526014602482015273496e76616c6964206c6f6f74626f78206e616d6560601b60448201526064016106de565b336000908152601460205260408120805491610a3583613946565b91905055506000610a4582612266565b90506000610a5282612469565b9050610a603360085461275a565b610a7060085482606001516128e5565b6008546000908152601560209081526040909120825180518493610a989284929101906131c9565b506020828101518051610ab192600185019201906131c9565b506040820151600282015560608201518051610ad79160038401916020909101906131c9565b505033600081815260126020908152604080832060088054825460018101845592865293909420019190915590548451606086015192519394507fd3542f075963e94c3ffdd04f31942ac7e624fec11eb8065fd2852206dcee262793610b3d939061395d565b60405180910390a260088054906000610b558361392d565b919050555050505050565b610b6a33826129b7565b610b865760405162461bcd60e51b81526004016106de90613992565b61077f838383612a35565b60126020528160005260406000208181548110610bad57600080fd5b90600052602060002001600091509150505481565b610bca612b99565b6009546040516370a0823160e01b81523060048201526000916001600160a01b0316906370a0823190602401602060405180830381865afa158015610c13573d6000803e3d6000fd5b505050506040513d601f19601f82011682018060405250810190610c3791906139df565b6009549091506001600160a01b031663a9059cbb610c5d6007546001600160a01b031690565b6040516001600160e01b031960e084901b1681526001600160a01b039091166004820152602481018490526044016020604051808303816000875af1158015610caa573d6000803e3d6000fd5b505050506040513d601f19601f82011682018060405250810190610cce91906139f8565b610d0c5760405162461bcd60e51b815260206004820152600f60248201526e15da5d1a191c985dc819985a5b1959608a1b60448201526064016106de565b50565b60116020528160005260406000208181548110610d2b57600080fd5b906000526020600020906004020160009150915050806000018054610d4f906138cd565b80601f0160208091040260200160405190810160405280929190818152602001828054610d7b906138cd565b8015610dc85780601f10610d9d57610100808354040283529160200191610dc8565b820191906000526020600020905b815481529060010190602001808311610dab57829003601f168201915b505050505090806001018054610ddd906138cd565b80601f0160208091040260200160405190810160405280929190818152602001828054610e09906138cd565b8015610e565780601f10610e2b57610100808354040283529160200191610e56565b820191906000526020600020905b815481529060010190602001808311610e3957829003601f168201915b505050505090806002015490806003018054610e71906138cd565b80601f0160208091040260200160405190810160405280929190818152602001828054610e9d906138cd565b8015610eea5780601f10610ebf57610100808354040283529160200191610eea565b820191906000526020600020905b815481529060010190602001808311610ecd57829003601f168201915b5050505050905084565b610efc612b99565b600a80546001600160a01b0319166001600160a01b0392909216919091179055565b61077f83838360405180602001604052806000815250611cd7565b6001600160a01b0381166000908152601260209081526040808320805482518185028101850190935280835260609493830182828015610f9857602002820191906000526020600020905b815481526020019060010190808311610f84575b505050505090506000815167ffffffffffffffff811115610fbb57610fbb61344f565b60405190808252806020026020018201604052801561101757816020015b6110046040518060800160405280606081526020016060815260200160008152602001606081525090565b815260200190600190039081610fd95790505b50905060005b825181101561124d576015600084838151811061103c5761103c613901565b6020026020010151815260200190815260200160002060405180608001604052908160008201805461106d906138cd565b80601f0160208091040260200160405190810160405280929190818152602001828054611099906138cd565b80156110e65780601f106110bb576101008083540402835291602001916110e6565b820191906000526020600020905b8154815290600101906020018083116110c957829003601f168201915b505050505081526020016001820180546110ff906138cd565b80601f016020809104026020016040519081016040528092919081815260200182805461112b906138cd565b80156111785780601f1061114d57610100808354040283529160200191611178565b820191906000526020600020905b81548152906001019060200180831161115b57829003601f168201915b505050505081526020016002820154815260200160038201805461119b906138cd565b80601f01602080910402602001604051908101604052809291908181526020018280546111c7906138cd565b80156112145780601f106111e957610100808354040283529160200191611214565b820191906000526020600020905b8154815290600101906020018083116111f757829003601f168201915b50505050508152505082828151811061122f5761122f613901565b602002602001018190525080806112459061392d565b91505061101d565b509392505050565b601560205260009081526040902080548190610d4f906138cd565b60136020526000908152604090208054819061128b906138cd565b80601f01602080910402602001604051908101604052809291908181526020018280546112b7906138cd565b80156113045780601f106112d957610100808354040283529160200191611304565b820191906000526020600020905b8154815290600101906020018083116112e757829003601f168201915b505050505090806001015490806002015490806003018054610e71906138cd565b6113506040518060800160405280606081526020016060815260200160008152602001606081525090565b6000828152600260205260409020546001600160a01b03166113ab5760405162461bcd60e51b8152602060048201526014602482015273151bdad95b88191bd95cc81b9bdd08195e1a5cdd60621b60448201526064016106de565b600082815260156020526040908190208151608081019092528054829082906113d3906138cd565b80601f01602080910402602001604051908101604052809291908181526020018280546113ff906138cd565b801561144c5780601f106114215761010080835404028352916020019161144c565b820191906000526020600020905b81548152906001019060200180831161142f57829003601f168201915b50505050508152602001600182018054611465906138cd565b80601f0160208091040260200160405190810160405280929190818152602001828054611491906138cd565b80156114de5780601f106114b3576101008083540402835291602001916114de565b820191906000526020600020905b8154815290600101906020018083116114c157829003601f168201915b5050505050815260200160028201548152602001600382018054611501906138cd565b80601f016020809104026020016040519081016040528092919081815260200182805461152d906138cd565b801561157a5780601f1061154f5761010080835404028352916020019161157a565b820191906000526020600020905b81548152906001019060200180831161155d57829003601f168201915b5050505050815250509050919050565b6000818152600260205260408120546001600160a01b0316806105945760405162461bcd60e51b8152602060048201526018602482015277115490cdcc8c4e881a5b9d985b1a59081d1bdad95b88125160421b60448201526064016106de565b336115f48261158a565b6001600160a01b03161461163a5760405162461bcd60e51b815260206004820152600d60248201526c2737ba103a34329037bbb732b960991b60448201526064016106de565b600a54610d0c906001600160a01b03168261066a565b60006001600160a01b0382166116ba5760405162461bcd60e51b815260206004820152602960248201527f4552433732313a2061646472657373207a65726f206973206e6f7420612076616044820152683634b21037bbb732b960b91b60648201526084016106de565b506001600160a01b031660009081526003602052604090205490565b6116de612b99565b6116e86000612bf3565b565b3360009081526014602052604090205461173d5760405162461bcd60e51b81526020600482015260146024820152734e6f206c6f6f74626f7820617661696c61626c6560601b60448201526064016106de565b33600090815260146020526040812080549161175883613946565b9190505550600061176882612266565b9050600061177582612469565b90506117833360085461275a565b61179360085482606001516128e5565b60085460009081526015602090815260409091208251805184936117bb9284929101906131c9565b5060208281015180516117d492600185019201906131c9565b5060408201516002820155606082015180516117fa9160038401916020909101906131c9565b505033600081815260126020908152604080832060088054825460018101845592865293909420019190915590548451606086015192519394507fd3542f075963e94c3ffdd04f31942ac7e624fec11eb8065fd2852206dcee262793611860939061395d565b60405180910390a2600880549060006118788361392d565b9190505550505050565b3361188c8461158a565b6001600160a01b0316146118da5760405162461bcd60e51b81526020600482015260156024820152744e6f74206f776e6572206f6620746f6b656e49643160581b60448201526064016106de565b336118e48361158a565b6001600160a01b0316146119325760405162461bcd60e51b81526020600482015260156024820152742737ba1037bbb732b91037b3103a37b5b2b724b21960591b60448201526064016106de565b3361193c8261158a565b6001600160a01b03161461198a5760405162461bcd60e51b81526020600482015260156024820152744e6f74206f776e6572206f6620746f6b656e49643360581b60448201526064016106de565b61199383612c45565b61199c82612c45565b6119a581612c45565b6119af3384612c85565b6119b93383612c85565b6119c33382612c85565b6000604051806060016040528060238152602001613c666023913990506119ec3360085461275a565b6119f8600854826128e5565b6040805160c0810182526010608082019081526f45766f6c76656420436f736d6574696360801b60a0830152815281518083018352600781526614dc1958da585b60ca1b6020828101919091528083019190915260068284015260608201849052600854600090815260158252929092208151805192938493611a7e92849201906131c9565b506020828101518051611a9792600185019201906131c9565b506040820151600282015560608201518051611abd9160038401916020909101906131c9565b5050336000908152601260209081526040808320600880548254600181018455928652948490209091019390935591548251908152908101889052908101869052606081018590527f24e245968e38d1eda64f5e5bceb5e742692bd53fb9497e5a1842474996aa131c915060800160405180910390a160088054906000611b438361392d565b91905055505050505050565b6060600180546105a9906138cd565b611b69338383612d53565b5050565b611b75612b99565b611b818260085461275a565b611b8d600854826128e5565b6001600160a01b038216600090815260126020908152604080832060088054825460018101845592865284862090920191909155815160c081018352600f608082019081526e437573746f6d20436f736d6574696360881b60a083015281528251808401845260078152662ab735b737bbb760c91b81860152818501528083018590526060810186905290548452601583529220825180519192611c36928492909101906131c9565b506020828101518051611c4f92600185019201906131c9565b506040820151600282015560608201518051611c759160038401916020909101906131c9565b50905050816001600160a01b03167f403f45e064e1472b925888509d0e5164b4642f3064c519d162e3b9261c204adc60085483604051611cb6929190613a15565b60405180910390a260088054906000611cce8361392d565b91905055505050565b611ce133836129b7565b611cfd5760405162461bcd60e51b81526004016106de90613992565b611d0984848484612e21565b50505050565b6060611d1a826120ed565b60008281526006602052604081208054611d33906138cd565b80601f0160208091040260200160405190810160405280929190818152602001828054611d5f906138cd565b8015611dac5780601f10611d8157610100808354040283529160200191611dac565b820191906000526020600020905b815481529060010190602001808311611d8f57829003601f168201915b505050505090506000611dca60408051602081019091526000815290565b90508051600003611ddc575092915050565b815115611e0e578082604051602001611df6929190613a2e565b60405160208183030381529060405292505050919050565b611e1784612e54565b949350505050565b6000818152601360205260409020600201546009546001600160a01b03166323b872dd3330611e4e8786613a5d565b6040516001600160e01b031960e086901b1681526001600160a01b03938416600482015292909116602483015260448201526064016020604051808303816000875af1158015611ea2573d6000803e3d6000fd5b505050506040513d601f19601f82011682018060405250810190611ec691906139f8565b611f035760405162461bcd60e51b815260206004820152600e60248201526d14185e5b595b9d0819985a5b195960921b60448201526064016106de565b3360009081526014602052604081208054859290611f22908490613a7c565b9091555050604080518481526020810184905233917f857b1aa506f761d739c25b203497f976962058f97f1e5238fbbb3fa3d32bd220910160405180910390a2505050565b611f6f612b99565b60408051608081018252858152602080820186905281830185905260608201849052600086815260138252929092208151805192939192611fb392849201906131c9565b5060208281015160018301556040830151600283015560608301518051611fe092600385019201906131c9565b509050507f8affa758f84d81ff6b0465542989f9f31f6b7da0d2064b71fe35d50249fcbdc38484848460405161201994939291906136b0565b60405180910390a150505050565b61202f612b99565b6001600160a01b0381166120945760405162461bcd60e51b815260206004820152602660248201527f4f776e61626c653a206e6577206f776e657220697320746865207a65726f206160448201526564647265737360d01b60648201526084016106de565b610d0c81612bf3565b60006001600160e01b031982166380ac58cd60e01b14806120ce57506001600160e01b03198216635b5e139f60e01b145b8061059457506301ffc9a760e01b6001600160e01b0319831614610594565b6000818152600260205260409020546001600160a01b0316610d0c5760405162461bcd60e51b8152602060048201526018602482015277115490cdcc8c4e881a5b9d985b1a59081d1bdad95b88125160421b60448201526064016106de565b600081815260046020526040902080546001600160a01b0319166001600160a01b03841690811790915581906121818261158a565b6001600160a01b03167f8c5be1e5ebec7d5bd14f71427d1e84f3dd0314c0f7b2291e5b200ac8c7c3b92560405160405180910390a45050565b6000805b6006811015612229578280519060200120601360008381526020019081526020016000206000016040516121f29190613a94565b6040518091039020036122175760009081526013602052604090206001015492915050565b806122218161392d565b9150506121be565b5060405162461bcd60e51b8152602060048201526011602482015270131bdbdd189bde081b9bdd08199bdd5b99607a1b60448201526064016106de565b6000806103e842336008546040516020016122a69392919092835260609190911b6bffffffffffffffffffffffff19166020830152603482015260540190565b6040516020818303038152906040528051906020012060001c6122c99190613b2f565b90506122d361324d565b8360000361231c576102bc815261038460208201526103ca60408201526103e78160035b60200201526103e8608082018190528160055b60200201526103e860c082015261241a565b836001036123445761012c81526102bc60208201526103a260408201526103de8160036122f7565b8360020361237a57600f815260736020820152610203604082015261032f60608201526103ac60808201526103de81600561230a565b836003036123af576000815260146020820152606460408201526101d6606082015261036660808201526103ca81600561230a565b836004036123e25760008082526020820152600a6040820152605060608201526102a8608082015261038481600561230a565b8360050361241a57600080825260208201819052604082015260146060820152606460808201526102d060a08201526103e860c08201525b60005b600781101561245e5781816007811061243857612438613901565b602002015183101561244c57949350505050565b806124568161392d565b91505061241d565b506000949350505050565b6124946040518060800160405280606081526020016060815260200160008152602001606081525090565b6000828152601160205260409020546124e85760405162461bcd60e51b81526020600482015260166024820152754e6f20636f736d657469637320617661696c61626c6560501b60448201526064016106de565b6000828152601160209081526040808320546008549151909261253292429233920192835260609190911b6bffffffffffffffffffffffff19166020830152603482015260540190565b6040516020818303038152906040528051906020012060001c6125559190613b2f565b60008481526011602052604090208054919250908290811061257957612579613901565b90600052602060002090600402016040518060800160405290816000820180546125a2906138cd565b80601f01602080910402602001604051908101604052809291908181526020018280546125ce906138cd565b801561261b5780601f106125f05761010080835404028352916020019161261b565b820191906000526020600020905b8154815290600101906020018083116125fe57829003601f168201915b50505050508152602001600182018054612634906138cd565b80601f0160208091040260200160405190810160405280929190818152602001828054612660906138cd565b80156126ad5780601f10612682576101008083540402835291602001916126ad565b820191906000526020600020905b81548152906001019060200180831161269057829003601f168201915b50505050508152602001600282015481526020016003820180546126d0906138cd565b80601f01602080910402602001604051908101604052809291908181526020018280546126fc906138cd565b80156127495780601f1061271e57610100808354040283529160200191612749565b820191906000526020600020905b81548152906001019060200180831161272c57829003601f168201915b505050505081525050915050919050565b6001600160a01b0382166127b05760405162461bcd60e51b815260206004820181905260248201527f4552433732313a206d696e7420746f20746865207a65726f206164647265737360448201526064016106de565b6000818152600260205260409020546001600160a01b0316156128155760405162461bcd60e51b815260206004820152601c60248201527f4552433732313a20746f6b656e20616c7265616479206d696e7465640000000060448201526064016106de565b6000818152600260205260409020546001600160a01b03161561287a5760405162461bcd60e51b815260206004820152601c60248201527f4552433732313a20746f6b656e20616c7265616479206d696e7465640000000060448201526064016106de565b6001600160a01b038216600081815260036020908152604080832080546001019055848352600290915280822080546001600160a01b0319168417905551839291907fddf252ad1be2c89b69c2b068fc378daa952ba7f163c4a11628f55a4df523b3ef908290a45050565b6000828152600260205260409020546001600160a01b03166129605760405162461bcd60e51b815260206004820152602e60248201527f45524337323155524953746f726167653a2055524920736574206f66206e6f6e60448201526d32bc34b9ba32b73a103a37b5b2b760911b60648201526084016106de565b6000828152600660209081526040909120825161297f928401906131c9565b506040518281527ff8e1a15aba9398e019f0b49df1a4fde98ee17ae345cb5f6b5e2c27f5033e8ce79060200160405180910390a15050565b6000806129c38361158a565b9050806001600160a01b0316846001600160a01b03161480612a0a57506001600160a01b0380821660009081526005602090815260408083209388168352929052205460ff165b80611e175750836001600160a01b0316612a2384610643565b6001600160a01b031614949350505050565b826001600160a01b0316612a488261158a565b6001600160a01b031614612a6e5760405162461bcd60e51b81526004016106de90613b51565b6001600160a01b038216612ad05760405162461bcd60e51b8152602060048201526024808201527f4552433732313a207472616e7366657220746f20746865207a65726f206164646044820152637265737360e01b60648201526084016106de565b826001600160a01b0316612ae38261158a565b6001600160a01b031614612b095760405162461bcd60e51b81526004016106de90613b51565b600081815260046020908152604080832080546001600160a01b03199081169091556001600160a01b0387811680865260038552838620805460001901905590871680865283862080546001019055868652600290945282852080549092168417909155905184937fddf252ad1be2c89b69c2b068fc378daa952ba7f163c4a11628f55a4df523b3ef91a4505050565b6007546001600160a01b031633146116e85760405162461bcd60e51b815260206004820181905260248201527f4f776e61626c653a2063616c6c6572206973206e6f7420746865206f776e657260448201526064016106de565b600780546001600160a01b038381166001600160a01b0319831681179093556040519116919082907f8be0079c531659141344cd1fd0a4f28419497f9722a3daafe3b4186f6b6457e090600090a35050565b612c4e81612ec8565b60008181526006602052604090208054612c67906138cd565b159050610d0c576000818152600660205260408120610d0c9161326b565b6001600160a01b0382166000908152601260205260408120905b8154811015611d095782828281548110612cbb57612cbb613901565b906000526020600020015403612d415781548290612cdb90600190613b96565b81548110612ceb57612ceb613901565b9060005260206000200154828281548110612d0857612d08613901565b906000526020600020018190555081805480612d2657612d26613bad565b60019003818190600052602060002001600090559055611d09565b80612d4b8161392d565b915050612c9f565b816001600160a01b0316836001600160a01b031603612db45760405162461bcd60e51b815260206004820152601960248201527f4552433732313a20617070726f766520746f2063616c6c65720000000000000060448201526064016106de565b6001600160a01b03838116600081815260056020908152604080832094871680845294825291829020805460ff191686151590811790915591519182527f17307eab39ab6107e8899845ad3d59bd9653f200f220920489ca2b5937696c31910160405180910390a3505050565b612e2c848484612a35565b612e3884848484612f5d565b611d095760405162461bcd60e51b81526004016106de90613bc3565b6060612e5f826120ed565b6000612e7660408051602081019091526000815290565b90506000815111612e965760405180602001604052806000815250612ec1565b80612ea08461305e565b604051602001612eb1929190613a2e565b6040516020818303038152906040525b9392505050565b6000612ed38261158a565b9050612ede8261158a565b600083815260046020908152604080832080546001600160a01b03199081169091556001600160a01b0385168085526003845282852080546000190190558785526002909352818420805490911690555192935084927fddf252ad1be2c89b69c2b068fc378daa952ba7f163c4a11628f55a4df523b3ef908390a45050565b60006001600160a01b0384163b1561305357604051630a85bd0160e11b81526001600160a01b0385169063150b7a0290612fa1903390899088908890600401613c15565b6020604051808303816000875af1925050508015612fdc575060408051601f3d908101601f19168201909252612fd991810190613c48565b60015b613039573d80801561300a576040519150601f19603f3d011682016040523d82523d6000602084013e61300f565b606091505b5080516000036130315760405162461bcd60e51b81526004016106de90613bc3565b805181602001fd5b6001600160e01b031916630a85bd0160e11b149050611e17565b506001949350505050565b6060600061306b836130f1565b600101905060008167ffffffffffffffff81111561308b5761308b61344f565b6040519080825280601f01601f1916602001820160405280156130b5576020820181803683370190505b5090508181016020015b600019016f181899199a1a9b1b9c1cb0b131b232b360811b600a86061a8153600a85049450846130bf57509392505050565b60008072184f03e93ff9f4daa797ed6e38ed64bf6a1f0160401b83106131305772184f03e93ff9f4daa797ed6e38ed64bf6a1f0160401b830492506040015b6d04ee2d6d415b85acef8100000000831061315c576d04ee2d6d415b85acef8100000000830492506020015b662386f26fc10000831061317a57662386f26fc10000830492506010015b6305f5e1008310613192576305f5e100830492506008015b61271083106131a657612710830492506004015b606483106131b8576064830492506002015b600a83106105945760010192915050565b8280546131d5906138cd565b90600052602060002090601f0160209004810192826131f7576000855561323d565b82601f1061321057805160ff191683800117855561323d565b8280016001018555821561323d579182015b8281111561323d578251825591602001919060010190613222565b506132499291506132a1565b5090565b6040518060e001604052806007906020820280368337509192915050565b508054613277906138cd565b6000825580601f10613287575050565b601f016020900490600052602060002090810190610d0c91905b5b8082111561324957600081556001016132a2565b6001600160e01b031981168114610d0c57600080fd5b6000602082840312156132de57600080fd5b8135612ec1816132b6565b60005b838110156133045781810151838201526020016132ec565b83811115611d095750506000910152565b6000815180845261332d8160208601602086016132e9565b601f01601f19169290920160200192915050565b602081526000612ec16020830184613315565b60006020828403121561336657600080fd5b5035919050565b80356001600160a01b038116811461338457600080fd5b919050565b6000806040838503121561339c57600080fd5b6133a58361336d565b946020939093013593505050565b60006020808301818452808551808352604092508286019150828160051b87010184880160005b8381101561344157603f1989840301855281516080815181865261340082870182613315565b915050888201518986015287820151888601526060808301519250858203818701525061342d8183613315565b9689019694505050908601906001016133da565b509098975050505050505050565b634e487b7160e01b600052604160045260246000fd5b600067ffffffffffffffff808411156134805761348061344f565b604051601f8501601f19908116603f011681019082821181831017156134a8576134a861344f565b816040528093508581528686860111156134c157600080fd5b858560208301376000602087830101525050509392505050565b600082601f8301126134ec57600080fd5b612ec183833560208501613465565b60006020828403121561350d57600080fd5b813567ffffffffffffffff81111561352457600080fd5b611e17848285016134db565b60008060006060848603121561354557600080fd5b61354e8461336d565b925061355c6020850161336d565b9150604084013590509250925092565b6000806040838503121561357f57600080fd5b50508035926020909101359150565b6080815260006135a16080830187613315565b82810360208401526135b38187613315565b905084604084015282810360608401526135cd8185613315565b979650505050505050565b6000602082840312156135ea57600080fd5b612ec18261336d565b60008151608084526136086080850182613315565b9050602083015184820360208601526136218282613315565b91505060408301516040850152606083015184820360608601526136458282613315565b95945050505050565b6000602080830181845280855180835260408601915060408160051b870101925083870160005b828110156136a357603f198886030184526136918583516135f3565b94509285019290850190600101613675565b5092979650505050505050565b6080815260006136c36080830187613315565b85602084015284604084015282810360608401526135cd8185613315565b602081526000612ec160208301846135f3565b60008060006060848603121561370957600080fd5b505081359360208301359350604090920135919050565b8015158114610d0c57600080fd5b6000806040838503121561374157600080fd5b61374a8361336d565b9150602083013561375a81613720565b809150509250929050565b6000806040838503121561377857600080fd5b6137818361336d565b9150602083013567ffffffffffffffff81111561379d57600080fd5b6137a9858286016134db565b9150509250929050565b600080600080608085870312156137c957600080fd5b6137d28561336d565b93506137e06020860161336d565b925060408501359150606085013567ffffffffffffffff81111561380357600080fd5b8501601f8101871361381457600080fd5b61382387823560208401613465565b91505092959194509250565b6000806040838503121561384257600080fd5b61384b8361336d565b91506138596020840161336d565b90509250929050565b6000806000806080858703121561387857600080fd5b843567ffffffffffffffff8082111561389057600080fd5b61389c888389016134db565b9550602087013594506040870135935060608701359150808211156138c057600080fd5b50613823878288016134db565b600181811c908216806138e157607f821691505b60208210810361096c57634e487b7160e01b600052602260045260246000fd5b634e487b7160e01b600052603260045260246000fd5b634e487b7160e01b600052601160045260246000fd5b60006001820161393f5761393f613917565b5060010190565b60008161395557613955613917565b506000190190565b8381526060602082015260006139766060830185613315565b82810360408401526139888185613315565b9695505050505050565b6020808252602d908201527f4552433732313a2063616c6c6572206973206e6f7420746f6b656e206f776e6560408201526c1c881bdc88185c1c1c9bdd9959609a1b606082015260800190565b6000602082840312156139f157600080fd5b5051919050565b600060208284031215613a0a57600080fd5b8151612ec181613720565b828152604060208201526000611e176040830184613315565b60008351613a408184602088016132e9565b835190830190613a548183602088016132e9565b01949350505050565b6000816000190483118215151615613a7757613a77613917565b500290565b60008219821115613a8f57613a8f613917565b500190565b600080835481600182811c915080831680613ab057607f831692505b60208084108203613acf57634e487b7160e01b86526022600452602486fd5b818015613ae35760018114613af457613b21565b60ff19861689528489019650613b21565b60008a81526020902060005b86811015613b195781548b820152908501908301613b00565b505084890196505b509498975050505050505050565b600082613b4c57634e487b7160e01b600052601260045260246000fd5b500690565b60208082526025908201527f4552433732313a207472616e736665722066726f6d20696e636f72726563742060408201526437bbb732b960d91b606082015260800190565b600082821015613ba857613ba8613917565b500390565b634e487b7160e01b600052603160045260246000fd5b60208082526032908201527f4552433732313a207472616e7366657220746f206e6f6e20455243373231526560408201527131b2b4bb32b91034b6b83632b6b2b73a32b960711b606082015260800190565b6001600160a01b038581168252841660208201526040810183905260806060820181905260009061398890830184613315565b600060208284031215613c5a57600080fd5b8151612ec1816132b656fe697066733a2f2f6e65772d65766f6c7665642d6e66742d6d657461646174612d757269a2646970667358221220c135d79924936e53077e432db1753ee06f1810a90bd430273a5e560d1ee39f4564736f6c634300080d0033697066733a2f2f516d555a6e4a38625448466a54437159574648455169365a355036546767473176514c5263546661314442796662697066733a2f2f516d637047386a6141694e416e3155785468584e527a3139574d3357554d465147716532316a6f7077446e4a487a697066733a2f2f516d58477a5a753142324157785a5476316458516b474c64787a61546545416950666354345359764a355643646e697066733a2f2f516d5767505574767468766b526f724d3969423958745a6a35666a79685734466555414e6d63714e567174565931697066733a2f2f516d65574b6b69625673475561483868576b386b724d56526235516f4876326a7762594a4741756145357a477155697066733a2f2f516d597769334467456a52464d546f58743559414446354534644458367678726e6736674850544436355a504d53697066733a2f2f516d53333946415a647667707533425a546e7554537741393937384a54566a796d6145734e6d55714264336b7361697066733a2f2f516d4e55797179614e557044426448454a534771457548455a47767944726d5a676e435a4d486754764745716b64697066733a2f2f516d4e4e374332424268486268334b78716d5741594838467855446231787368487563356374704243796a756a6d697066733a2f2f516d52714e6b524561694a7345474c5878317a376748556d4436444a7632464b554751715635725a6e4c73446338697066733a2f2f516d58347550463754535458706244774d5956445577636376385443764a41354b615948775a617762785259534e",
  "immutableReferences": {},
  "source": "/*\r\npragma solidity ^0.8.0;\r\n\r\nimport \"@openzeppelin/contracts/token/ERC721/extensions/ERC721URIStorage.sol\";\r\nimport \"@openzeppelin/contracts/token/ERC20/IERC20.sol\";\r\nimport \"@openzeppelin/contracts/access/Ownable.sol\";\r\n\r\ncontract GPTWarsLootboxNFT is ERC721URIStorage, Ownable {\r\n    uint public nextTokenId = 1;\r\n    IERC20 public gptWarsToken;\r\n    address public gameContract;\r\n\r\n    struct Lootbox {\r\n        string name;\r\n        uint lootboxLevel;\r\n        uint price;\r\n        string metadataURI;\r\n    }\r\n\r\n    struct Cosmetic {\r\n        string name;\r\n        string itemType;\r\n        uint rarity;\r\n        string metadataURI;\r\n    }\r\n\r\n    uint[6] public lootBoxLevel = [0, 1, 2, 3, 4, 5];\r\n\r\n    mapping(uint => Cosmetic[]) public cosmeticSets;\r\n    mapping(address => uint) public lootboxBalance;\r\n    mapping(uint => Lootbox) public lootboxTypes;\r\n    mapping(address => uint[]) public userNFTs;\r\n\r\n    event CosmeticMinted(address indexed user, uint tokenId, string cosmeticName, string metadataURI);\r\n    event LootboxBought(address indexed user, uint quantity, uint packType);\r\n    event NFTEvolved(uint newTokenId, uint oldTokenId1, uint oldTokenId2, uint oldTokenId3);\r\n    event LootboxCreated(string name, uint lootboxLevel, uint price, string metadataURI);\r\n    event NFTCreated(address indexed user, uint tokenId, string metadataURI);\r\n    constructor(address _gptWarsToken) ERC721(\"GPTWars Lootbox\", \"GPTLNFT\") {\r\n        gptWarsToken = IERC20(_gptWarsToken);\r\n        _initializeLootboxes();\r\n        _addInitialCosmetics();\r\n    }\r\n\r\n    function _initializeLootboxes() internal {\r\n        lootboxTypes[0] = Lootbox(\"Junk Box\", 0, 5 * 10**3, \"ipfs://QmX4uPF7TSTXpbDwMYVDUwccv8TCvJA5KaYHwZawbxRYSN\");\r\n        lootboxTypes[1] = Lootbox(\"Cheap Box\", 1, 15 * 10**3, \"ipfs://QmNN7C2BBhHbh3KxqmWAYH8FxUDb1xshHuc5ctpBCyjujm\");\r\n        lootboxTypes[2] = Lootbox(\"Good Box\", 2, 30 * 10**3, \"ipfs://QmeWKkibVsGUaH8hWk8krMVRb5QoHv2jwbYJGAuaE5zGqU\");\r\n        lootboxTypes[3] = Lootbox(\"Great Box\", 3, 50 * 10**3, \"ipfs://QmRqNkREaiJsEGLXx1z7gHUmD6DJv2FKUGQqV5rZnLsDc8\");\r\n        lootboxTypes[4] = Lootbox(\"Epic Box\", 4, 80 * 10**3, \"ipfs://QmUZnJ8bTHFjTCqYWFHEQi6Z5P6TggG1vQLRcTfa1DByfb\");\r\n        lootboxTypes[5] = Lootbox(\"Legendary Box\", 5, 150 * 10**3, \"ipfs://QmXGzZu1B2AWxZTv1dXQkGLdxzaTeEAiPfcT4SYvJ5VCdn\");\r\n    }\r\n\r\n    function _addInitialCosmetics() internal {\r\n        cosmeticSets[0].push(Cosmetic(\"Assault Visor\", \"Hat\", 0, \"ipfs://QmWgPUtvthvkRorM9iB9XtZj5fjyhW4FeUANmcqNVqtVY1\"));\r\n        cosmeticSets[5].push(Cosmetic(\"Camo Snapback\", \"Hat\", 5, \"ipfs://QmcpG8jaAiNAn1UxThXNRz19WM3WUMFQGqe21jopwDnJHz\"));\r\n        cosmeticSets[1].push(Cosmetic(\"Combat Fedora\", \"Hat\", 1, \"ipfs://QmYwi3DgEjRFMToXt5YADF5E4dDX6vxrng6gHPTD65ZPMS\"));\r\n        cosmeticSets[2].push(Cosmetic(\"Dusty Cap\", \"Hat\", 2, \"ipfs://QmNUyqyaNUpDBdHEJSGqEuHEZGvyDrmZgnCZMHgTvGEqkd\"));\r\n        cosmeticSets[3].push(Cosmetic(\"elite-marksman-cap\", \"Hat\", 3, \"ipfs://QmS39FAZdvgpu3BZTnuTSwA9978JTVjymaEsNmUqBd3ksa\"));\r\n    }\r\n\r\n   function _randomChance(uint lootboxlevel) internal view returns (uint) {\r\n    uint randomNumber = uint(keccak256(abi.encodePacked(block.timestamp, msg.sender, nextTokenId))) % 1000;\r\n    uint256[7] memory probabilities;\r\n\r\n    if (lootboxlevel == 0) { // Junk Box\r\n        probabilities[0] = 700;\r\n        probabilities[1] = 900;\r\n        probabilities[2] = 970;\r\n        probabilities[3] = 999;\r\n        probabilities[4] = 1000;\r\n        probabilities[5] = 1000;\r\n        probabilities[6] = 1000;\r\n    } else if (lootboxlevel == 1) { // Cheap Box\r\n        probabilities[0] = 300;\r\n        probabilities[1] = 700;\r\n        probabilities[2] = 930;\r\n        probabilities[3] = 990;\r\n        probabilities[4] = 1000;\r\n        probabilities[5] = 1000;\r\n        probabilities[6] = 1000;\r\n    } else if (lootboxlevel == 2) { // Good Box\r\n        probabilities[0] = 15;\r\n        probabilities[1] = 115;\r\n        probabilities[2] = 515;\r\n        probabilities[3] = 815;\r\n        probabilities[4] = 940;\r\n        probabilities[5] = 990;\r\n        probabilities[6] = 1000;\r\n    } else if (lootboxlevel == 3) { // Great Box\r\n        probabilities[0] = 0;\r\n        probabilities[1] = 20;\r\n        probabilities[2] = 100;\r\n        probabilities[3] = 470;\r\n        probabilities[4] = 870;\r\n        probabilities[5] = 970;\r\n        probabilities[6] = 1000;\r\n    } else if (lootboxlevel == 4) { // Epic Box\r\n        probabilities[0] = 0;\r\n        probabilities[1] = 0;\r\n        probabilities[2] = 10;\r\n        probabilities[3] = 80;\r\n        probabilities[4] = 680;\r\n        probabilities[5] = 900;\r\n        probabilities[6] = 1000;\r\n    } else if (lootboxlevel == 5) { // Legendary Box\r\n        probabilities[0] = 0;\r\n        probabilities[1] = 0;\r\n        probabilities[2] = 0;\r\n        probabilities[3] = 20;\r\n        probabilities[4] = 100;\r\n        probabilities[5] = 720;\r\n        probabilities[6] = 1000;\r\n    }\r\n\r\n    for (uint i = 0; i < probabilities.length; i++) {\r\n        if (randomNumber < probabilities[i]) {\r\n            return i; // Retourne le niveau de raret du NFT\r\n        }\r\n    }\r\n\r\n    return 0; // Par dfaut, retourne \"Pas de NFT\"\r\n}\r\n\r\n  function createNFT(address recipient, string memory metadataURI) public onlyOwner {\r\n        _mint(recipient, nextTokenId);\r\n        _setTokenURI(nextTokenId, metadataURI);\r\n        userNFTs[recipient].push(nextTokenId);\r\n        emit NFTCreated(recipient, nextTokenId, metadataURI);\r\n        nextTokenId++;\r\n    }\r\n    function buyLootboxes(uint quantity, uint lootboxlevel) public {\r\n        uint packPrice = lootboxTypes[lootboxlevel].price;\r\n        require(gptWarsToken.transferFrom(msg.sender, address(this), packPrice * quantity), \"Payment failed\");\r\n\r\n        lootboxBalance[msg.sender] += quantity;\r\n        emit LootboxBought(msg.sender, quantity, lootboxlevel);\r\n    }\r\n    function openLootbox(uint lootboxlevel) public {\r\n    require(lootboxBalance[msg.sender] > 0, \"No lootbox available\");\r\n    lootboxBalance[msg.sender]--;\r\n\r\n    uint rarityLevel = _randomChance(lootboxlevel);\r\n\r\n    //if (rarityLevel > 0) {\r\n        // Slectionner un NFT de cette raret\r\n        Cosmetic memory selectedCosmetic = _selectCosmetic(rarityLevel);\r\n\r\n        _mint(msg.sender, nextTokenId);\r\n        _setTokenURI(nextTokenId, selectedCosmetic.metadataURI);\r\n        userNFTs[msg.sender].push(nextTokenId);\r\n\r\n        emit CosmeticMinted(msg.sender, nextTokenId, selectedCosmetic.name, selectedCosmetic.metadataURI);\r\n        nextTokenId++;\r\n   // }\r\n}\r\n function openOneLootbox(string memory name) public {\r\n        require(lootboxBalance[msg.sender] > 0, \"No lootbox available\");\r\n\r\n        uint lootboxLevel = _getLootboxLevelByName(name);\r\n        require(lootboxLevel > 0, \"Invalid lootbox name\");\r\n\r\n        lootboxBalance[msg.sender]--;\r\n\r\n        uint rarityLevel = _randomChance(lootboxLevel);\r\n\r\n        if (rarityLevel > 0) {\r\n            Cosmetic memory selectedCosmetic = _selectCosmetic(rarityLevel);\r\n            _mint(msg.sender, nextTokenId);\r\n            _setTokenURI(nextTokenId, selectedCosmetic.metadataURI);\r\n            userNFTs[msg.sender].push(nextTokenId);\r\n            emit CosmeticMinted(msg.sender, nextTokenId, selectedCosmetic.name, selectedCosmetic.metadataURI);\r\n            nextTokenId++;\r\n        }\r\n    }\r\n\r\n    function _getLootboxLevelByName(string memory name) internal view returns (uint) {\r\n        for (uint i = 0; i < 6; i++) {\r\n            if (keccak256(bytes(lootboxTypes[i].name)) == keccak256(bytes(name))) {\r\n                return lootboxTypes[i].lootboxLevel;\r\n            }\r\n        }\r\n        return 0; // Return 0 if lootbox not found\r\n    }\r\n\r\n\r\n    function _selectCosmetic(uint lootboxlevel) internal view returns (Cosmetic memory) {\r\n        uint random = uint(keccak256(abi.encodePacked(block.timestamp, msg.sender, nextTokenId))) % 1000;\r\n        uint cumulativeProbability = 0;\r\n        Cosmetic[] memory cosmetics = cosmeticSets[lootboxlevel];\r\n\r\n        for (uint i = 0; i < cosmetics.length; i++) {\r\n            cumulativeProbability += cosmetics[i].rarity;\r\n            if (random < cumulativeProbability) {\r\n                return cosmetics[i];\r\n            }\r\n        }\r\n        return cosmetics[cosmetics.length - 1];\r\n    }\r\n\r\n    function getAllLootboxes() public view returns (Lootbox[] memory) {\r\n        Lootbox[] memory allLootboxes = new Lootbox[](6);\r\n        for (uint i = 0; i < 6; i++) {\r\n            allLootboxes[i] = lootboxTypes[i];\r\n        }\r\n        return allLootboxes;\r\n    }\r\n\r\n    function getLootboxNFTs(address user) public view returns (uint[] memory) {\r\n        return userNFTs[user];\r\n    }\r\n\r\n    function createLootbox(string memory name, uint lootboxLevel, uint price, string memory metadataURI) public onlyOwner {\r\n        lootboxTypes[lootboxLevel] = Lootbox(name, lootboxLevel, price, metadataURI);\r\n        emit LootboxCreated(name, lootboxLevel, price, metadataURI);\r\n    }\r\n\r\n    function withdraw() public onlyOwner {\r\n        uint balance = gptWarsToken.balanceOf(address(this));\r\n        require(gptWarsToken.transfer(owner(), balance), \"Withdraw failed\");\r\n    }\r\n\r\n    function setGameContract(address _gameContract) external onlyOwner {\r\n        gameContract = _gameContract;\r\n    }\r\n\r\n    function approveGameContract(uint tokenId) public {\r\n        require(ownerOf(tokenId) == msg.sender, \"Not the owner\");\r\n        approve(gameContract, tokenId);\r\n    }\r\n} */\r\n\r\n// SPDX-License-Identifier: MIT\r\npragma solidity ^0.8.0;\r\n\r\nimport \"@openzeppelin/contracts/token/ERC721/extensions/ERC721URIStorage.sol\";\r\nimport \"@openzeppelin/contracts/token/ERC20/IERC20.sol\";\r\nimport \"@openzeppelin/contracts/access/Ownable.sol\";\r\n\r\ncontract GPTWarsLootboxNFT is ERC721URIStorage, Ownable {\r\n    uint public nextTokenId = 1;\r\n    IERC20 public gptWarsToken;\r\n    address public gameContract;\r\n\r\n    struct Lootbox {\r\n        string name;\r\n        uint lootboxLevel;\r\n        uint price;\r\n        string metadataURI;\r\n    }\r\n\r\n    struct Cosmetic {\r\n        string name;\r\n        string itemType;\r\n        uint rarity;\r\n        string metadataURI;\r\n    }\r\n\r\n    uint[6] public lootBoxLevel = [0, 1, 2, 3, 4, 5];\r\n\r\n    mapping(uint => Cosmetic[]) public cosmeticSets;\r\n    mapping(address => uint[]) public userNFTs;\r\n    mapping(uint => Lootbox) public lootboxTypes;\r\n    mapping(address => uint) public lootboxBalance;\r\n    mapping(uint => Cosmetic) public tokenIdToCosmetic;\r\n\r\n    event CosmeticMinted(address indexed user, uint tokenId, string cosmeticName, string metadataURI);\r\n    event LootboxBought(address indexed user, uint quantity, uint packType);\r\n    event NFTEvolved(uint newTokenId, uint oldTokenId1, uint oldTokenId2, uint oldTokenId3);\r\n    event LootboxCreated(string name, uint lootboxLevel, uint price, string metadataURI);\r\n    event NFTCreated(address indexed user, uint tokenId, string metadataURI);\r\n\r\n    constructor(address _gptWarsToken) ERC721(\"GPTWars Lootbox\", \"GPTLNFT\") {\r\n        gptWarsToken = IERC20(_gptWarsToken);\r\n        _initializeLootboxes();\r\n        _addInitialCosmetics();\r\n    }\r\n\r\n    function _initializeLootboxes() internal {\r\n        lootboxTypes[0] = Lootbox(\"Junk Box\", 0, 5 * 10**3, \"ipfs://QmX4uPF7TSTXpbDwMYVDUwccv8TCvJA5KaYHwZawbxRYSN\");\r\n        lootboxTypes[1] = Lootbox(\"Cheap Box\", 1, 15 * 10**3, \"ipfs://QmNN7C2BBhHbh3KxqmWAYH8FxUDb1xshHuc5ctpBCyjujm\");\r\n        lootboxTypes[2] = Lootbox(\"Good Box\", 2, 30 * 10**3, \"ipfs://QmeWKkibVsGUaH8hWk8krMVRb5QoHv2jwbYJGAuaE5zGqU\");\r\n        lootboxTypes[3] = Lootbox(\"Great Box\", 3, 50 * 10**3, \"ipfs://QmRqNkREaiJsEGLXx1z7gHUmD6DJv2FKUGQqV5rZnLsDc8\");\r\n        lootboxTypes[4] = Lootbox(\"Epic Box\", 4, 80 * 10**3, \"ipfs://QmUZnJ8bTHFjTCqYWFHEQi6Z5P6TggG1vQLRcTfa1DByfb\");\r\n        lootboxTypes[5] = Lootbox(\"Legendary Box\", 5, 150 * 10**3, \"ipfs://QmXGzZu1B2AWxZTv1dXQkGLdxzaTeEAiPfcT4SYvJ5VCdn\");\r\n    }\r\n\r\n    function _addInitialCosmetics() internal {\r\n        cosmeticSets[0].push(Cosmetic(\"Assault Visor\", \"Hat\", 0, \"ipfs://QmWgPUtvthvkRorM9iB9XtZj5fjyhW4FeUANmcqNVqtVY1\"));\r\n        cosmeticSets[1].push(Cosmetic(\"Combat Fedora\", \"Hat\", 1, \"ipfs://QmYwi3DgEjRFMToXt5YADF5E4dDX6vxrng6gHPTD65ZPMS\"));\r\n        cosmeticSets[2].push(Cosmetic(\"Dusty Cap\", \"Hat\", 2, \"ipfs://QmNUyqyaNUpDBdHEJSGqEuHEZGvyDrmZgnCZMHgTvGEqkd\"));\r\n        cosmeticSets[3].push(Cosmetic(\"Elite Marksman Cap\", \"Hat\", 3, \"ipfs://QmS39FAZdvgpu3BZTnuTSwA9978JTVjymaEsNmUqBd3ksa\"));\r\n        cosmeticSets[5].push(Cosmetic(\"Camo Snapback\", \"Hat\", 5, \"ipfs://QmcpG8jaAiNAn1UxThXNRz19WM3WUMFQGqe21jopwDnJHz\"));\r\n    }\r\n\r\n    function _randomChance(uint lootboxlevel) internal view returns (uint) {\r\n    uint randomNumber = uint(keccak256(abi.encodePacked(block.timestamp, msg.sender, nextTokenId))) % 1000;\r\n    uint256[7] memory probabilities;\r\n\r\n    if (lootboxlevel == 0) { // Junk Box\r\n        probabilities[0] = 700;\r\n        probabilities[1] = 900;\r\n        probabilities[2] = 970;\r\n        probabilities[3] = 999;\r\n        probabilities[4] = 1000;\r\n        probabilities[5] = 1000;\r\n        probabilities[6] = 1000;\r\n    } else if (lootboxlevel == 1) { // Cheap Box\r\n        probabilities[0] = 300;\r\n        probabilities[1] = 700;\r\n        probabilities[2] = 930;\r\n        probabilities[3] = 990;\r\n        probabilities[4] = 1000;\r\n        probabilities[5] = 1000;\r\n        probabilities[6] = 1000;\r\n    } else if (lootboxlevel == 2) { // Good Box\r\n        probabilities[0] = 15;\r\n        probabilities[1] = 115;\r\n        probabilities[2] = 515;\r\n        probabilities[3] = 815;\r\n        probabilities[4] = 940;\r\n        probabilities[5] = 990;\r\n        probabilities[6] = 1000;\r\n    } else if (lootboxlevel == 3) { // Great Box\r\n        probabilities[0] = 0;\r\n        probabilities[1] = 20;\r\n        probabilities[2] = 100;\r\n        probabilities[3] = 470;\r\n        probabilities[4] = 870;\r\n        probabilities[5] = 970;\r\n        probabilities[6] = 1000;\r\n    } else if (lootboxlevel == 4) { // Epic Box\r\n        probabilities[0] = 0;\r\n        probabilities[1] = 0;\r\n        probabilities[2] = 10;\r\n        probabilities[3] = 80;\r\n        probabilities[4] = 680;\r\n        probabilities[5] = 900;\r\n        probabilities[6] = 1000;\r\n    } else if (lootboxlevel == 5) { // Legendary Box\r\n        probabilities[0] = 0;\r\n        probabilities[1] = 0;\r\n        probabilities[2] = 0;\r\n        probabilities[3] = 20;\r\n        probabilities[4] = 100;\r\n        probabilities[5] = 720;\r\n        probabilities[6] = 1000;\r\n    }\r\n\r\n    for (uint i = 0; i < probabilities.length; i++) {\r\n        if (randomNumber < probabilities[i]) {\r\n            return i; // Retourne le niveau de raret du NFT\r\n        }\r\n    }\r\n\r\n    return 0; // Par dfaut, retourne \"Pas de NFT\"\r\n}\r\n\r\n    function createNFT(address recipient, string memory metadataURI) public onlyOwner {\r\n        _mint(recipient, nextTokenId);\r\n        _setTokenURI(nextTokenId, metadataURI);\r\n        userNFTs[recipient].push(nextTokenId);\r\n        tokenIdToCosmetic[nextTokenId] = Cosmetic(\"Custom Cosmetic\", \"Unknown\", 0, metadataURI);\r\n        emit NFTCreated(recipient, nextTokenId, metadataURI);\r\n        nextTokenId++;\r\n    }\r\n\r\n    function buyLootboxes(uint quantity, uint lootboxlevel) public {\r\n        uint packPrice = lootboxTypes[lootboxlevel].price;\r\n        require(gptWarsToken.transferFrom(msg.sender, address(this), packPrice * quantity), \"Payment failed\");\r\n        lootboxBalance[msg.sender] += quantity;\r\n        emit LootboxBought(msg.sender, quantity, lootboxlevel);\r\n    }\r\n\r\n    function openLootbox(uint lootboxlevel) public {\r\n        require(lootboxBalance[msg.sender] > 0, \"No lootbox available\");\r\n        lootboxBalance[msg.sender]--;\r\n\r\n        uint rarityLevel = _randomChance(lootboxlevel);\r\n        Cosmetic memory selectedCosmetic = _selectCosmetic(rarityLevel);\r\n\r\n        _mint(msg.sender, nextTokenId);\r\n        _setTokenURI(nextTokenId, selectedCosmetic.metadataURI);\r\n        tokenIdToCosmetic[nextTokenId] = selectedCosmetic;\r\n        userNFTs[msg.sender].push(nextTokenId);\r\n\r\n        emit CosmeticMinted(msg.sender, nextTokenId, selectedCosmetic.name, selectedCosmetic.metadataURI);\r\n        nextTokenId++;\r\n    }\r\n\r\n    function openOneLootbox(string memory name) public {\r\n        require(lootboxBalance[msg.sender] > 0, \"No lootbox available\");\r\n\r\n        uint lootboxLevel = _getLootboxLevelByName(name);\r\n        require(lootboxLevel <= 5, \"Invalid lootbox name\"); // Autorise level 0 aussi !\r\n\r\n        lootboxBalance[msg.sender]--;\r\n\r\n        uint rarityLevel = _randomChance(lootboxLevel);\r\n        Cosmetic memory selectedCosmetic = _selectCosmetic(rarityLevel);\r\n\r\n        _mint(msg.sender, nextTokenId);\r\n        _setTokenURI(nextTokenId, selectedCosmetic.metadataURI);\r\n        tokenIdToCosmetic[nextTokenId] = selectedCosmetic;\r\n        userNFTs[msg.sender].push(nextTokenId);\r\n\r\n        emit CosmeticMinted(msg.sender, nextTokenId, selectedCosmetic.name, selectedCosmetic.metadataURI);\r\n        nextTokenId++;\r\n    }\r\n\r\n    function _getLootboxLevelByName(string memory name) internal view returns (uint) {\r\n        for (uint i = 0; i < 6; i++) {\r\n            if (keccak256(bytes(lootboxTypes[i].name)) == keccak256(bytes(name))) {\r\n                return lootboxTypes[i].lootboxLevel;\r\n            }\r\n        }\r\n        revert(\"Lootbox not found\");\r\n    }\r\n\r\n    function _selectCosmetic(uint lootboxlevel) internal view returns (Cosmetic memory) {\r\n        require(cosmeticSets[lootboxlevel].length > 0, \"No cosmetics available\");\r\n        uint random = uint(keccak256(abi.encodePacked(block.timestamp, msg.sender, nextTokenId))) % cosmeticSets[lootboxlevel].length;\r\n        return cosmeticSets[lootboxlevel][random];\r\n    }\r\n\r\n    function getCosmeticByTokenId(uint tokenId) public view returns (Cosmetic memory) {\r\n        require(_exists(tokenId), \"Token does not exist\");\r\n        return tokenIdToCosmetic[tokenId];\r\n    }\r\n\r\n    function getAllLootboxes() public view returns (Lootbox[] memory) {\r\n        Lootbox[] memory allLootboxes = new Lootbox[](6);\r\n        for (uint i = 0; i < 6; i++) {\r\n            allLootboxes[i] = lootboxTypes[i];\r\n        }\r\n        return allLootboxes;\r\n    }\r\n\r\n    function getLootboxNFTs(address user) public view returns (Cosmetic[] memory) {\r\n        uint[] memory tokenIds = userNFTs[user];\r\n        Cosmetic[] memory cosmetics = new Cosmetic[](tokenIds.length);\r\n\r\n        for (uint i = 0; i < tokenIds.length; i++) {\r\n            cosmetics[i] = tokenIdToCosmetic[tokenIds[i]];\r\n        }\r\n        return cosmetics;\r\n    }\r\n\r\n    function createLootbox(string memory name, uint lootboxLevel, uint price, string memory metadataURI) public onlyOwner {\r\n        lootboxTypes[lootboxLevel] = Lootbox(name, lootboxLevel, price, metadataURI);\r\n        emit LootboxCreated(name, lootboxLevel, price, metadataURI);\r\n    }\r\n\r\n    function _removeNFT(address user, uint tokenId) internal {\r\n        uint[] storage tokens = userNFTs[user];\r\n        for (uint i = 0; i < tokens.length; i++) {\r\n            if (tokens[i] == tokenId) {\r\n                tokens[i] = tokens[tokens.length - 1];\r\n                tokens.pop();\r\n                break;\r\n            }\r\n        }\r\n    }\r\n\r\n    function evolveNFT(uint tokenId1, uint tokenId2, uint tokenId3) public {\r\n        require(ownerOf(tokenId1) == msg.sender, \"Not owner of tokenId1\");\r\n        require(ownerOf(tokenId2) == msg.sender, \"Not owner of tokenId2\");\r\n        require(ownerOf(tokenId3) == msg.sender, \"Not owner of tokenId3\");\r\n\r\n        _burn(tokenId1);\r\n        _burn(tokenId2);\r\n        _burn(tokenId3);\r\n\r\n        _removeNFT(msg.sender, tokenId1);\r\n        _removeNFT(msg.sender, tokenId2);\r\n        _removeNFT(msg.sender, tokenId3);\r\n\r\n        string memory evolvedMetadata = \"ipfs://new-evolved-nft-metadata-uri\";\r\n        _mint(msg.sender, nextTokenId);\r\n        _setTokenURI(nextTokenId, evolvedMetadata);\r\n\r\n        Cosmetic memory evolvedCosmetic = Cosmetic(\"Evolved Cosmetic\", \"Special\", 6, evolvedMetadata);\r\n        tokenIdToCosmetic[nextTokenId] = evolvedCosmetic;\r\n        userNFTs[msg.sender].push(nextTokenId);\r\n\r\n        emit NFTEvolved(nextTokenId, tokenId1, tokenId2, tokenId3);\r\n\r\n        nextTokenId++;\r\n    }\r\n\r\n    function withdraw() public onlyOwner {\r\n        uint balance = gptWarsToken.balanceOf(address(this));\r\n        require(gptWarsToken.transfer(owner(), balance), \"Withdraw failed\");\r\n    }\r\n\r\n    function setGameContract(address _gameContract) external onlyOwner {\r\n        gameContract = _gameContract;\r\n    }\r\n\r\n    function approveGameContract(uint tokenId) public {\r\n        require(ownerOf(tokenId) == msg.sender, \"Not the owner\");\r\n        approve(gameContract, tokenId);\r\n    }\r\n}\r\n",
  "sourcePath": "C:\\Users\\Ghofrane\\Desktop\\GPT-Wars\\LootBoxes\\GPTWLootboxNFT-contract_v1\\contracts\\GPTWLootboxNFT.sol",
  "compiler": {
    "name": "solc",
    "version": "0.8.13+commit.abaa5c0e.Emscripten.clang"
  },
  "schemaVersion": "3.4.16",
  "updatedAt": "2025-04-18T23:38:48.209Z",
  "networkType": "ethereum",
  "devdoc": {
    "kind": "dev",
    "methods": {
      "approve(address,uint256)": {
        "details": "See {IERC721-approve}."
      },
      "balanceOf(address)": {
        "details": "See {IERC721-balanceOf}."
      },
      "getApproved(uint256)": {
        "details": "See {IERC721-getApproved}."
      },
      "isApprovedForAll(address,address)": {
        "details": "See {IERC721-isApprovedForAll}."
      },
      "name()": {
        "details": "See {IERC721Metadata-name}."
      },
      "owner()": {
        "details": "Returns the address of the current owner."
      },
      "ownerOf(uint256)": {
        "details": "See {IERC721-ownerOf}."
      },
      "renounceOwnership()": {
        "details": "Leaves the contract without owner. It will not be possible to call `onlyOwner` functions. Can only be called by the current owner. NOTE: Renouncing ownership will leave the contract without an owner, thereby disabling any functionality that is only available to the owner."
      },
      "safeTransferFrom(address,address,uint256)": {
        "details": "See {IERC721-safeTransferFrom}."
      },
      "safeTransferFrom(address,address,uint256,bytes)": {
        "details": "See {IERC721-safeTransferFrom}."
      },
      "setApprovalForAll(address,bool)": {
        "details": "See {IERC721-setApprovalForAll}."
      },
      "supportsInterface(bytes4)": {
        "details": "See {IERC165-supportsInterface}"
      },
      "symbol()": {
        "details": "See {IERC721Metadata-symbol}."
      },
      "tokenURI(uint256)": {
        "details": "See {IERC721Metadata-tokenURI}."
      },
      "transferFrom(address,address,uint256)": {
        "details": "See {IERC721-transferFrom}."
      },
      "transferOwnership(address)": {
        "details": "Transfers ownership of the contract to a new account (`newOwner`). Can only be called by the current owner."
      }
    },
    "version": 1
  },
  "userdoc": {
    "kind": "user",
    "methods": {},
    "version": 1
  }
}